{
  "_format": "hh-sol-artifact-1",
  "contractName": "CouponNFT",
  "sourceName": "contracts/CouponNFT.sol",
  "abi": [
    {
      "inputs": [],
      "stateMutability": "nonpayable",
      "type": "constructor"
    },
    {
      "anonymous": false,
      "inputs": [
        {
          "indexed": true,
          "internalType": "address",
          "name": "owner",
          "type": "address"
        },
        {
          "indexed": true,
          "internalType": "address",
          "name": "approved",
          "type": "address"
        },
        {
          "indexed": true,
          "internalType": "uint256",
          "name": "tokenId",
          "type": "uint256"
        }
      ],
      "name": "Approval",
      "type": "event"
    },
    {
      "anonymous": false,
      "inputs": [
        {
          "indexed": true,
          "internalType": "address",
          "name": "owner",
          "type": "address"
        },
        {
          "indexed": true,
          "internalType": "address",
          "name": "operator",
          "type": "address"
        },
        {
          "indexed": false,
          "internalType": "bool",
          "name": "approved",
          "type": "bool"
        }
      ],
      "name": "ApprovalForAll",
      "type": "event"
    },
    {
      "anonymous": false,
      "inputs": [
        {
          "indexed": true,
          "internalType": "address",
          "name": "from",
          "type": "address"
        },
        {
          "indexed": true,
          "internalType": "address",
          "name": "to",
          "type": "address"
        },
        {
          "indexed": true,
          "internalType": "uint256",
          "name": "tokenId",
          "type": "uint256"
        }
      ],
      "name": "Transfer",
      "type": "event"
    },
    {
      "inputs": [
        {
          "internalType": "address",
          "name": "to",
          "type": "address"
        },
        {
          "internalType": "uint256",
          "name": "tokenId",
          "type": "uint256"
        }
      ],
      "name": "approve",
      "outputs": [],
      "stateMutability": "nonpayable",
      "type": "function"
    },
    {
      "inputs": [
        {
          "internalType": "address",
          "name": "owner",
          "type": "address"
        }
      ],
      "name": "balanceOf",
      "outputs": [
        {
          "internalType": "uint256",
          "name": "",
          "type": "uint256"
        }
      ],
      "stateMutability": "view",
      "type": "function"
    },
    {
      "inputs": [
        {
          "internalType": "uint256",
          "name": "tokenId",
          "type": "uint256"
        }
      ],
      "name": "getApproved",
      "outputs": [
        {
          "internalType": "address",
          "name": "",
          "type": "address"
        }
      ],
      "stateMutability": "view",
      "type": "function"
    },
    {
      "inputs": [
        {
          "internalType": "address",
          "name": "owner",
          "type": "address"
        },
        {
          "internalType": "address",
          "name": "operator",
          "type": "address"
        }
      ],
      "name": "isApprovedForAll",
      "outputs": [
        {
          "internalType": "bool",
          "name": "",
          "type": "bool"
        }
      ],
      "stateMutability": "view",
      "type": "function"
    },
    {
      "inputs": [
        {
          "internalType": "address",
          "name": "to",
          "type": "address"
        },
        {
          "internalType": "string",
          "name": "code",
          "type": "string"
        },
        {
          "internalType": "uint256",
          "name": "value",
          "type": "uint256"
        }
      ],
      "name": "mintCoupon",
      "outputs": [],
      "stateMutability": "nonpayable",
      "type": "function"
    },
    {
      "inputs": [],
      "name": "name",
      "outputs": [
        {
          "internalType": "string",
          "name": "",
          "type": "string"
        }
      ],
      "stateMutability": "view",
      "type": "function"
    },
    {
      "inputs": [
        {
          "internalType": "uint256",
          "name": "tokenId",
          "type": "uint256"
        }
      ],
      "name": "ownerOf",
      "outputs": [
        {
          "internalType": "address",
          "name": "",
          "type": "address"
        }
      ],
      "stateMutability": "view",
      "type": "function"
    },
    {
      "inputs": [
        {
          "internalType": "address",
          "name": "from",
          "type": "address"
        },
        {
          "internalType": "address",
          "name": "to",
          "type": "address"
        },
        {
          "internalType": "uint256",
          "name": "tokenId",
          "type": "uint256"
        }
      ],
      "name": "safeTransferFrom",
      "outputs": [],
      "stateMutability": "nonpayable",
      "type": "function"
    },
    {
      "inputs": [
        {
          "internalType": "address",
          "name": "from",
          "type": "address"
        },
        {
          "internalType": "address",
          "name": "to",
          "type": "address"
        },
        {
          "internalType": "uint256",
          "name": "tokenId",
          "type": "uint256"
        },
        {
          "internalType": "bytes",
          "name": "data",
          "type": "bytes"
        }
      ],
      "name": "safeTransferFrom",
      "outputs": [],
      "stateMutability": "nonpayable",
      "type": "function"
    },
    {
      "inputs": [
        {
          "internalType": "address",
          "name": "operator",
          "type": "address"
        },
        {
          "internalType": "bool",
          "name": "approved",
          "type": "bool"
        }
      ],
      "name": "setApprovalForAll",
      "outputs": [],
      "stateMutability": "nonpayable",
      "type": "function"
    },
    {
      "inputs": [
        {
          "internalType": "bytes4",
          "name": "interfaceId",
          "type": "bytes4"
        }
      ],
      "name": "supportsInterface",
      "outputs": [
        {
          "internalType": "bool",
          "name": "",
          "type": "bool"
        }
      ],
      "stateMutability": "view",
      "type": "function"
    },
    {
      "inputs": [],
      "name": "symbol",
      "outputs": [
        {
          "internalType": "string",
          "name": "",
          "type": "string"
        }
      ],
      "stateMutability": "view",
      "type": "function"
    },
    {
      "inputs": [],
      "name": "tokenCount",
      "outputs": [
        {
          "internalType": "uint256",
          "name": "",
          "type": "uint256"
        }
      ],
      "stateMutability": "view",
      "type": "function"
    },
    {
      "inputs": [
        {
          "internalType": "uint256",
          "name": "tokenId",
          "type": "uint256"
        }
      ],
      "name": "tokenURI",
      "outputs": [
        {
          "internalType": "string",
          "name": "",
          "type": "string"
        }
      ],
      "stateMutability": "view",
      "type": "function"
    },
    {
      "inputs": [
        {
          "internalType": "address",
          "name": "from",
          "type": "address"
        },
        {
          "internalType": "address",
          "name": "to",
          "type": "address"
        },
        {
          "internalType": "uint256",
          "name": "tokenId",
          "type": "uint256"
        }
      ],
      "name": "transferFrom",
      "outputs": [],
      "stateMutability": "nonpayable",
      "type": "function"
    }
  ],
  "bytecode": "0x608060405260006006553480156200001657600080fd5b506040518060400160405280600981526020017f436f75706f6e4e465400000000000000000000000000000000000000000000008152506040518060400160405280600381526020017f43504e0000000000000000000000000000000000000000000000000000000000815250816000908162000094919062000329565b508060019081620000a6919062000329565b50505062000410565b600081519050919050565b7f4e487b7100000000000000000000000000000000000000000000000000000000600052604160045260246000fd5b7f4e487b7100000000000000000000000000000000000000000000000000000000600052602260045260246000fd5b600060028204905060018216806200013157607f821691505b602082108103620001475762000146620000e9565b5b50919050565b60008190508160005260206000209050919050565b60006020601f8301049050919050565b600082821b905092915050565b600060088302620001b17fffffffffffffffffffffffffffffffffffffffffffffffffffffffffffffffff8262000172565b620001bd868362000172565b95508019841693508086168417925050509392505050565b6000819050919050565b6000819050919050565b60006200020a62000204620001fe84620001d5565b620001df565b620001d5565b9050919050565b6000819050919050565b6200022683620001e9565b6200023e620002358262000211565b8484546200017f565b825550505050565b600090565b6200025562000246565b620002628184846200021b565b505050565b5b818110156200028a576200027e6000826200024b565b60018101905062000268565b5050565b601f821115620002d957620002a3816200014d565b620002ae8462000162565b81016020851015620002be578190505b620002d6620002cd8562000162565b83018262000267565b50505b505050565b600082821c905092915050565b6000620002fe60001984600802620002de565b1980831691505092915050565b6000620003198383620002eb565b9150826002028217905092915050565b6200033482620000af565b67ffffffffffffffff81111562000350576200034f620000ba565b5b6200035c825462000118565b620003698282856200028e565b600060209050601f831160018114620003a157600084156200038c578287015190505b6200039885826200030b565b86555062000408565b601f198416620003b1866200014d565b60005b82811015620003db57848901518255600182019150602085019450602081019050620003b4565b86831015620003fb5784890151620003f7601f891682620002eb565b8355505b6001600288020188555050505b505050505050565b61262b80620004206000396000f3fe608060405234801561001057600080fd5b50600436106100f55760003560e01c80636352211e11610097578063a22cb46511610066578063a22cb46514610284578063b88d4fde146102a0578063c87b56dd146102bc578063e985e9c5146102ec576100f5565b80636352211e146101e857806370a082311461021857806395d89b41146102485780639f181b5e14610266576100f5565b8063095ea7b3116100d3578063095ea7b31461017857806323b872dd1461019457806342842e0e146101b05780634dc0a238146101cc576100f5565b806301ffc9a7146100fa57806306fdde031461012a578063081812fc14610148575b600080fd5b610114600480360381019061010f91906117a0565b61031c565b60405161012191906117e8565b60405180910390f35b6101326103fe565b60405161013f9190611893565b60405180910390f35b610162600480360381019061015d91906118eb565b610490565b60405161016f9190611959565b60405180910390f35b610192600480360381019061018d91906119a0565b6104d6565b005b6101ae60048036038101906101a991906119e0565b6105ed565b005b6101ca60048036038101906101c591906119e0565b61064d565b005b6101e660048036038101906101e19190611b68565b61066d565b005b61020260048036038101906101fd91906118eb565b610696565b60405161020f9190611959565b60405180910390f35b610232600480360381019061022d9190611bd7565b61071c565b60405161023f9190611c13565b60405180910390f35b6102506107d3565b60405161025d9190611893565b60405180910390f35b61026e610865565b60405161027b9190611c13565b60405180910390f35b61029e60048036038101906102999190611c5a565b61086b565b005b6102ba60048036038101906102b59190611d3b565b610881565b005b6102d660048036038101906102d191906118eb565b6108e3565b6040516102e39190611893565b60405180910390f35b61030660048036038101906103019190611dbe565b61094b565b60405161031391906117e8565b60405180910390f35b60007f80ac58cd000000000000000000000000000000000000000000000000000000007bffffffffffffffffffffffffffffffffffffffffffffffffffffffff1916827bffffffffffffffffffffffffffffffffffffffffffffffffffffffff191614806103e757507f5b5e139f000000000000000000000000000000000000000000000000000000007bffffffffffffffffffffffffffffffffffffffffffffffffffffffff1916827bffffffffffffffffffffffffffffffffffffffffffffffffffffffff1916145b806103f757506103f6826109df565b5b9050919050565b60606000805461040d90611e2d565b80601f016020809104026020016040519081016040528092919081815260200182805461043990611e2d565b80156104865780601f1061045b57610100808354040283529160200191610486565b820191906000526020600020905b81548152906001019060200180831161046957829003601f168201915b5050505050905090565b600061049b82610a49565b6004600083815260200190815260200160002060009054906101000a900473ffffffffffffffffffffffffffffffffffffffff169050919050565b60006104e182610696565b90508073ffffffffffffffffffffffffffffffffffffffff168373ffffffffffffffffffffffffffffffffffffffff1603610551576040517f08c379a000000000000000000000000000000000000000000000000000000000815260040161054890611ed0565b60405180910390fd5b8073ffffffffffffffffffffffffffffffffffffffff16610570610a94565b73ffffffffffffffffffffffffffffffffffffffff16148061059f575061059e81610599610a94565b61094b565b5b6105de576040517f08c379a00000000000000000000000000000000000000000000000000000000081526004016105d590611f62565b60405180910390fd5b6105e88383610a9c565b505050565b6105fe6105f8610a94565b82610b55565b61063d576040517f08c379a000000000000000000000000000000000000000000000000000000000815260040161063490611ff4565b60405180910390fd5b610648838383610bea565b505050565b61066883838360405180602001604052806000815250610881565b505050565b6006600081548092919061068090612043565b919050555061069183600654610ee3565b505050565b6000806106a283611100565b9050600073ffffffffffffffffffffffffffffffffffffffff168173ffffffffffffffffffffffffffffffffffffffff1603610713576040517f08c379a000000000000000000000000000000000000000000000000000000000815260040161070a906120d7565b60405180910390fd5b80915050919050565b60008073ffffffffffffffffffffffffffffffffffffffff168273ffffffffffffffffffffffffffffffffffffffff160361078c576040517f08c379a000000000000000000000000000000000000000000000000000000000815260040161078390612169565b60405180910390fd5b600360008373ffffffffffffffffffffffffffffffffffffffff1673ffffffffffffffffffffffffffffffffffffffff168152602001908152602001600020549050919050565b6060600180546107e290611e2d565b80601f016020809104026020016040519081016040528092919081815260200182805461080e90611e2d565b801561085b5780601f106108305761010080835404028352916020019161085b565b820191906000526020600020905b81548152906001019060200180831161083e57829003601f168201915b5050505050905090565b60065481565b61087d610876610a94565b838361113d565b5050565b61089261088c610a94565b83610b55565b6108d1576040517f08c379a00000000000000000000000000000000000000000000000000000000081526004016108c890611ff4565b60405180910390fd5b6108dd848484846112a9565b50505050565b60606108ee82610a49565b60006108f8611305565b905060008151116109185760405180602001604052806000815250610943565b806109228461131c565b6040516020016109339291906121c5565b6040516020818303038152906040525b915050919050565b6000600560008473ffffffffffffffffffffffffffffffffffffffff1673ffffffffffffffffffffffffffffffffffffffff16815260200190815260200160002060008373ffffffffffffffffffffffffffffffffffffffff1673ffffffffffffffffffffffffffffffffffffffff16815260200190815260200160002060009054906101000a900460ff16905092915050565b60007f01ffc9a7000000000000000000000000000000000000000000000000000000007bffffffffffffffffffffffffffffffffffffffffffffffffffffffff1916827bffffffffffffffffffffffffffffffffffffffffffffffffffffffff1916149050919050565b610a52816113ea565b610a91576040517f08c379a0000000000000000000000000000000000000000000000000000000008152600401610a88906120d7565b60405180910390fd5b50565b600033905090565b816004600083815260200190815260200160002060006101000a81548173ffffffffffffffffffffffffffffffffffffffff021916908373ffffffffffffffffffffffffffffffffffffffff160217905550808273ffffffffffffffffffffffffffffffffffffffff16610b0f83610696565b73ffffffffffffffffffffffffffffffffffffffff167f8c5be1e5ebec7d5bd14f71427d1e84f3dd0314c0f7b2291e5b200ac8c7c3b92560405160405180910390a45050565b600080610b6183610696565b90508073ffffffffffffffffffffffffffffffffffffffff168473ffffffffffffffffffffffffffffffffffffffff161480610ba35750610ba2818561094b565b5b80610be157508373ffffffffffffffffffffffffffffffffffffffff16610bc984610490565b73ffffffffffffffffffffffffffffffffffffffff16145b91505092915050565b8273ffffffffffffffffffffffffffffffffffffffff16610c0a82610696565b73ffffffffffffffffffffffffffffffffffffffff1614610c60576040517f08c379a0000000000000000000000000000000000000000000000000000000008152600401610c579061225b565b60405180910390fd5b600073ffffffffffffffffffffffffffffffffffffffff168273ffffffffffffffffffffffffffffffffffffffff1603610ccf576040517f08c379a0000000000000000000000000000000000000000000000000000000008152600401610cc6906122ed565b60405180910390fd5b610cdc838383600161142b565b8273ffffffffffffffffffffffffffffffffffffffff16610cfc82610696565b73ffffffffffffffffffffffffffffffffffffffff1614610d52576040517f08c379a0000000000000000000000000000000000000000000000000000000008152600401610d499061225b565b60405180910390fd5b6004600082815260200190815260200160002060006101000a81549073ffffffffffffffffffffffffffffffffffffffff02191690556001600360008573ffffffffffffffffffffffffffffffffffffffff1673ffffffffffffffffffffffffffffffffffffffff168152602001908152602001600020600082825403925050819055506001600360008473ffffffffffffffffffffffffffffffffffffffff1673ffffffffffffffffffffffffffffffffffffffff16815260200190815260200160002060008282540192505081905550816002600083815260200190815260200160002060006101000a81548173ffffffffffffffffffffffffffffffffffffffff021916908373ffffffffffffffffffffffffffffffffffffffff160217905550808273ffffffffffffffffffffffffffffffffffffffff168473ffffffffffffffffffffffffffffffffffffffff167fddf252ad1be2c89b69c2b068fc378daa952ba7f163c4a11628f55a4df523b3ef60405160405180910390a4610ede8383836001611431565b505050565b600073ffffffffffffffffffffffffffffffffffffffff168273ffffffffffffffffffffffffffffffffffffffff1603610f52576040517f08c379a0000000000000000000000000000000000000000000000000000000008152600401610f4990612359565b60405180910390fd5b610f5b816113ea565b15610f9b576040517f08c379a0000000000000000000000000000000000000000000000000000000008152600401610f92906123c5565b60405180910390fd5b610fa960008383600161142b565b610fb2816113ea565b15610ff2576040517f08c379a0000000000000000000000000000000000000000000000000000000008152600401610fe9906123c5565b60405180910390fd5b6001600360008473ffffffffffffffffffffffffffffffffffffffff1673ffffffffffffffffffffffffffffffffffffffff16815260200190815260200160002060008282540192505081905550816002600083815260200190815260200160002060006101000a81548173ffffffffffffffffffffffffffffffffffffffff021916908373ffffffffffffffffffffffffffffffffffffffff160217905550808273ffffffffffffffffffffffffffffffffffffffff16600073ffffffffffffffffffffffffffffffffffffffff167fddf252ad1be2c89b69c2b068fc378daa952ba7f163c4a11628f55a4df523b3ef60405160405180910390a46110fc600083836001611431565b5050565b60006002600083815260200190815260200160002060009054906101000a900473ffffffffffffffffffffffffffffffffffffffff169050919050565b8173ffffffffffffffffffffffffffffffffffffffff168373ffffffffffffffffffffffffffffffffffffffff16036111ab576040517f08c379a00000000000000000000000000000000000000000000000000000000081526004016111a290612431565b60405180910390fd5b80600560008573ffffffffffffffffffffffffffffffffffffffff1673ffffffffffffffffffffffffffffffffffffffff16815260200190815260200160002060008473ffffffffffffffffffffffffffffffffffffffff1673ffffffffffffffffffffffffffffffffffffffff16815260200190815260200160002060006101000a81548160ff0219169083151502179055508173ffffffffffffffffffffffffffffffffffffffff168373ffffffffffffffffffffffffffffffffffffffff167f17307eab39ab6107e8899845ad3d59bd9653f200f220920489ca2b5937696c318360405161129c91906117e8565b60405180910390a3505050565b6112b4848484610bea565b6112c084848484611437565b6112ff576040517f08c379a00000000000000000000000000000000000000000000000000000000081526004016112f6906124c3565b60405180910390fd5b50505050565b606060405180602001604052806000815250905090565b60606000600161132b846115be565b01905060008167ffffffffffffffff81111561134a57611349611a3d565b5b6040519080825280601f01601f19166020018201604052801561137c5781602001600182028036833780820191505090505b509050600082602001820190505b6001156113df578080600190039150507f3031323334353637383961626364656600000000000000000000000000000000600a86061a8153600a85816113d3576113d26124e3565b5b0494506000850361138a575b819350505050919050565b60008073ffffffffffffffffffffffffffffffffffffffff1661140c83611100565b73ffffffffffffffffffffffffffffffffffffffff1614159050919050565b50505050565b50505050565b60006114588473ffffffffffffffffffffffffffffffffffffffff16611711565b156115b1578373ffffffffffffffffffffffffffffffffffffffff1663150b7a02611481610a94565b8786866040518563ffffffff1660e01b81526004016114a39493929190612567565b6020604051808303816000875af19250505080156114df57506040513d601f19601f820116820180604052508101906114dc91906125c8565b60015b611561573d806000811461150f576040519150601f19603f3d011682016040523d82523d6000602084013e611514565b606091505b506000815103611559576040517f08c379a0000000000000000000000000000000000000000000000000000000008152600401611550906124c3565b60405180910390fd5b805181602001fd5b63150b7a0260e01b7bffffffffffffffffffffffffffffffffffffffffffffffffffffffff1916817bffffffffffffffffffffffffffffffffffffffffffffffffffffffff1916149150506115b6565b600190505b949350505050565b600080600090507a184f03e93ff9f4daa797ed6e38ed64bf6a1f010000000000000000831061161c577a184f03e93ff9f4daa797ed6e38ed64bf6a1f0100000000000000008381611612576116116124e3565b5b0492506040810190505b6d04ee2d6d415b85acef81000000008310611659576d04ee2d6d415b85acef8100000000838161164f5761164e6124e3565b5b0492506020810190505b662386f26fc10000831061168857662386f26fc10000838161167e5761167d6124e3565b5b0492506010810190505b6305f5e10083106116b1576305f5e10083816116a7576116a66124e3565b5b0492506008810190505b61271083106116d65761271083816116cc576116cb6124e3565b5b0492506004810190505b606483106116f957606483816116ef576116ee6124e3565b5b0492506002810190505b600a8310611708576001810190505b80915050919050565b6000808273ffffffffffffffffffffffffffffffffffffffff163b119050919050565b6000604051905090565b600080fd5b600080fd5b60007fffffffff0000000000000000000000000000000000000000000000000000000082169050919050565b61177d81611748565b811461178857600080fd5b50565b60008135905061179a81611774565b92915050565b6000602082840312156117b6576117b561173e565b5b60006117c48482850161178b565b91505092915050565b60008115159050919050565b6117e2816117cd565b82525050565b60006020820190506117fd60008301846117d9565b92915050565b600081519050919050565b600082825260208201905092915050565b60005b8381101561183d578082015181840152602081019050611822565b60008484015250505050565b6000601f19601f8301169050919050565b600061186582611803565b61186f818561180e565b935061187f81856020860161181f565b61188881611849565b840191505092915050565b600060208201905081810360008301526118ad818461185a565b905092915050565b6000819050919050565b6118c8816118b5565b81146118d357600080fd5b50565b6000813590506118e5816118bf565b92915050565b6000602082840312156119015761190061173e565b5b600061190f848285016118d6565b91505092915050565b600073ffffffffffffffffffffffffffffffffffffffff82169050919050565b600061194382611918565b9050919050565b61195381611938565b82525050565b600060208201905061196e600083018461194a565b92915050565b61197d81611938565b811461198857600080fd5b50565b60008135905061199a81611974565b92915050565b600080604083850312156119b7576119b661173e565b5b60006119c58582860161198b565b92505060206119d6858286016118d6565b9150509250929050565b6000806000606084860312156119f9576119f861173e565b5b6000611a078682870161198b565b9350506020611a188682870161198b565b9250506040611a29868287016118d6565b9150509250925092565b600080fd5b600080fd5b7f4e487b7100000000000000000000000000000000000000000000000000000000600052604160045260246000fd5b611a7582611849565b810181811067ffffffffffffffff82111715611a9457611a93611a3d565b5b80604052505050565b6000611aa7611734565b9050611ab38282611a6c565b919050565b600067ffffffffffffffff821115611ad357611ad2611a3d565b5b611adc82611849565b9050602081019050919050565b82818337600083830152505050565b6000611b0b611b0684611ab8565b611a9d565b905082815260208101848484011115611b2757611b26611a38565b5b611b32848285611ae9565b509392505050565b600082601f830112611b4f57611b4e611a33565b5b8135611b5f848260208601611af8565b91505092915050565b600080600060608486031215611b8157611b8061173e565b5b6000611b8f8682870161198b565b935050602084013567ffffffffffffffff811115611bb057611baf611743565b5b611bbc86828701611b3a565b9250506040611bcd868287016118d6565b9150509250925092565b600060208284031215611bed57611bec61173e565b5b6000611bfb8482850161198b565b91505092915050565b611c0d816118b5565b82525050565b6000602082019050611c286000830184611c04565b92915050565b611c37816117cd565b8114611c4257600080fd5b50565b600081359050611c5481611c2e565b92915050565b60008060408385031215611c7157611c7061173e565b5b6000611c7f8582860161198b565b9250506020611c9085828601611c45565b9150509250929050565b600067ffffffffffffffff821115611cb557611cb4611a3d565b5b611cbe82611849565b9050602081019050919050565b6000611cde611cd984611c9a565b611a9d565b905082815260208101848484011115611cfa57611cf9611a38565b5b611d05848285611ae9565b509392505050565b600082601f830112611d2257611d21611a33565b5b8135611d32848260208601611ccb565b91505092915050565b60008060008060808587031215611d5557611d5461173e565b5b6000611d638782880161198b565b9450506020611d748782880161198b565b9350506040611d85878288016118d6565b925050606085013567ffffffffffffffff811115611da657611da5611743565b5b611db287828801611d0d565b91505092959194509250565b60008060408385031215611dd557611dd461173e565b5b6000611de38582860161198b565b9250506020611df48582860161198b565b9150509250929050565b7f4e487b7100000000000000000000000000000000000000000000000000000000600052602260045260246000fd5b60006002820490506001821680611e4557607f821691505b602082108103611e5857611e57611dfe565b5b50919050565b7f4552433732313a20617070726f76616c20746f2063757272656e74206f776e6560008201527f7200000000000000000000000000000000000000000000000000000000000000602082015250565b6000611eba60218361180e565b9150611ec582611e5e565b604082019050919050565b60006020820190508181036000830152611ee981611ead565b9050919050565b7f4552433732313a20617070726f76652063616c6c6572206973206e6f7420746f60008201527f6b656e206f776e6572206f7220617070726f76656420666f7220616c6c000000602082015250565b6000611f4c603d8361180e565b9150611f5782611ef0565b604082019050919050565b60006020820190508181036000830152611f7b81611f3f565b9050919050565b7f4552433732313a2063616c6c6572206973206e6f7420746f6b656e206f776e6560008201527f72206f7220617070726f76656400000000000000000000000000000000000000602082015250565b6000611fde602d8361180e565b9150611fe982611f82565b604082019050919050565b6000602082019050818103600083015261200d81611fd1565b9050919050565b7f4e487b7100000000000000000000000000000000000000000000000000000000600052601160045260246000fd5b600061204e826118b5565b91507fffffffffffffffffffffffffffffffffffffffffffffffffffffffffffffffff82036120805761207f612014565b5b600182019050919050565b7f4552433732313a20696e76616c696420746f6b656e2049440000000000000000600082015250565b60006120c160188361180e565b91506120cc8261208b565b602082019050919050565b600060208201905081810360008301526120f0816120b4565b9050919050565b7f4552433732313a2061646472657373207a65726f206973206e6f74206120766160008201527f6c6964206f776e65720000000000000000000000000000000000000000000000602082015250565b600061215360298361180e565b915061215e826120f7565b604082019050919050565b6000602082019050818103600083015261218281612146565b9050919050565b600081905092915050565b600061219f82611803565b6121a98185612189565b93506121b981856020860161181f565b80840191505092915050565b60006121d18285612194565b91506121dd8284612194565b91508190509392505050565b7f4552433732313a207472616e736665722066726f6d20696e636f72726563742060008201527f6f776e6572000000000000000000000000000000000000000000000000000000602082015250565b600061224560258361180e565b9150612250826121e9565b604082019050919050565b6000602082019050818103600083015261227481612238565b9050919050565b7f4552433732313a207472616e7366657220746f20746865207a65726f2061646460008201527f7265737300000000000000000000000000000000000000000000000000000000602082015250565b60006122d760248361180e565b91506122e28261227b565b604082019050919050565b60006020820190508181036000830152612306816122ca565b9050919050565b7f4552433732313a206d696e7420746f20746865207a65726f2061646472657373600082015250565b600061234360208361180e565b915061234e8261230d565b602082019050919050565b6000602082019050818103600083015261237281612336565b9050919050565b7f4552433732313a20746f6b656e20616c7265616479206d696e74656400000000600082015250565b60006123af601c8361180e565b91506123ba82612379565b602082019050919050565b600060208201905081810360008301526123de816123a2565b9050919050565b7f4552433732313a20617070726f766520746f2063616c6c657200000000000000600082015250565b600061241b60198361180e565b9150612426826123e5565b602082019050919050565b6000602082019050818103600083015261244a8161240e565b9050919050565b7f4552433732313a207472616e7366657220746f206e6f6e20455243373231526560008201527f63656976657220696d706c656d656e7465720000000000000000000000000000602082015250565b60006124ad60328361180e565b91506124b882612451565b604082019050919050565b600060208201905081810360008301526124dc816124a0565b9050919050565b7f4e487b7100000000000000000000000000000000000000000000000000000000600052601260045260246000fd5b600081519050919050565b600082825260208201905092915050565b600061253982612512565b612543818561251d565b935061255381856020860161181f565b61255c81611849565b840191505092915050565b600060808201905061257c600083018761194a565b612589602083018661194a565b6125966040830185611c04565b81810360608301526125a8818461252e565b905095945050505050565b6000815190506125c281611774565b92915050565b6000602082840312156125de576125dd61173e565b5b60006125ec848285016125b3565b9150509291505056fea26469706673582212206899b49f340df0f351f901ca0ca5cb26696f41721db131f3c66de69242b1e4d564736f6c63430008140033",
  "linkReferences": {},
  "deployedLinkReferences": {}
}